:100000000C942A001895000018950000189500001F
:10001000189500001895000018950000189500002C
:10002000189500001895000018950000189500001C
:10003000189500001895000018950000189500000C
:1000400018950000189500001895000018950000FC
:10005000189500008FE58DBFC8E3E0E24E2E84E0E6
:100060008EBFD4E0F4E05F2EA89584B7082E877F7A
:1000700084BF88E1992781BD91BDEEEFF3E0A0E652
:10008000B0E088278D933197E9F76624D0988FEFF9
:1000900084BB8FEF81BBD89880E090E0A4E6B0E00D
:1000A0008D939C9381E090E0A6E6B0E08D939C93C5
:1000B00081E090E0A2E6B0E08D939C9380E090E038
:1000C000A0E6B0E08D939C9380E090E0A8E6B0E0DD
:1000D0008D939C93D89B0C94BD00A2E6B0E08D91CB
:1000E0009C91A8E6B0E08D939C93A8E6B0E08D913A
:1000F0009C91AAE6B0E08D939C9398E0A8E6B0E0CE
:100100000E94E400A8E6B0E08D919C91ACE6B0E0DE
:100110008D939C9380916A000E94D40085BB80914E
:100120006C000E94D40082BBA4E6B0E00D911C914B
:10013000A6E6B0E04D915C91040F151FA2E6B0E079
:100140000D931C93A6E6B0E08D919C91A4E6B0E0DF
:100150008D939C93A2E6B0E08D919C91A6E6B0E0D1
:100160008D939C93D898A0E6B0E00D911C910F5F01
:100170001F4FA0E6B0E00D931C93A0E6B0E00D91F8
:100180001C91043150E0150711F00C946A00F894AA
:10019000FFCF982F82958F70805D8D939F70905DBB
:1001A0009D9388278C9308954AE0082F0E94F100C0
:1001B0000295802B08953197F1F70895689462F8BD
:1001C0000895E89462F80895903051F00D911C91D3
:1001D0001695079508F410689A95D1F71C930E931D
:1001E0000895FF93881BF9E0001FFA9511F4FF9121
:1001F0000895881F841B18F4840F8894F5CF089401
:02020000F3CF3A
:00000001FF
